:040600007BEF04F098
:0806080056616C6F7220444939
:10061000503A202575200D0A000056616C6F72203B
:1006200062696E6172696F3A2000200D0A00866867
:100630008E500F0B0B6EC7EF04F00B50010A20E039
:10064000030A27E0010A2EE0070A35E0010A3CE030
:10065000030A43E0010A4AE00F0A51E0010A58E0A8
:10066000030A5FE0010A66E0070A6DE0010AD8B4F8
:1006700073D0030AD8B479D0010AD8B47FD087D018
:1006800082907A8082927A92859A7D9A85987D98D6
:1006900086D082907A9082927A82859A7D9A859885
:1006A0007D987DD082907A8082927A82859A7D9A96
:1006B00085987D9874D082907A9082927A92859A69
:1006C0007D8A85987D986BD082907A8082927A928A
:1006D000859A7D8A85987D9862D082907A90829260
:1006E0007A82859A7D8A85987D9859D082907A8081
:1006F00082927A82859A7D8A85987D9850D0829060
:100700007A9082927A92859A7D9A85987D8847D050
:1007100082907A8082927A92859A7D9A85987D8855
:100720003ED082907A9082927A82859A7D9A85983C
:100730007D8835D082907A8082927A82859A7D9A5D
:1007400085987D882CD082907A9082927A92859A30
:100750007D8A85987D8823D082907A8082927A9251
:10076000859A7D8A85987D881AD082907A90829227
:100770007A82859A7D8A85987D8811D082907A8048
:1007800082927A82859A7D8A85987D8808D0829027
:100790007A9082927A92859A7D9A85987D98CBEF0D
:1007A00004F00BC014F0156A155003080EE3036A39
:1007B00015500C0FE96E000E0320EA6E1450010B69
:1007C000EF6ED8901432152AEFD7CCEF04F0090061
:1007D000F6CF15F0F7CF16F0F8CF17F0F5500E0161
:1007E00037A9FED7DD6F15C0F6FF16C0F7FF17C09B
:1007F000F8FF142E01D002D00001E9D70001120049
:100800001850016A175C03E217C000F00CD0006AB0
:10081000080E196E173600361850005CD8B0006EFE
:100820000136192EF7D71200015015C017F0640ECB
:10083000186EE6DF00C015F00150300E07E116A279
:100840000FD016B60DD016B8200E03D016961698F7
:100850001680012601500E0137A9FED7DD6F000179
:1008600015C017F00A0E186ECBDF00C015F001504E
:10087000300E06E116B60BD016A009D016B8200E21
:10088000012601500E0137A9FED7DD6F0001300EA1
:10089000152615500E0137A9FED7DD6F0001120095
:1008A0000900F55213E0F6CF14F0F7CF15F0F8CFAA
:1008B00016F0F5500E0137A9FED7DD6F14C0F6FF14
:1008C00015C0F7FF16C0F8FF0001EAD71200EA6A68
:1008D000140EE96EEF500EE0140E016E006A002E49
:1008E000FED7012EFBD7BF0E006E002EFED700D024
:1008F000EF2EF2D71200778E779CF86AF29A0E01EB
:10090000550E0D01EF6FAA0EEF6FEF91270E0E013E
:10091000086F370E0A6F320E116F210E136F110E12
:10092000156F230E176F130E196F140E1A6F120E18
:10093000626F100E726F140E746F0E0E836F550E71
:100940000D01EF6FAA0EEF6FEF810E01486B456B43
:10095000476B496B200E436F046AE2878A0EDE6F95
:10096000000EDF6FA60EE16F900EE06F116A106A45
:10097000926B9A6BA76BAF6BB46BBC6BD26BD36B88
:10098000D16BD06B056A066A126A000150D612500C
:100990000B5C3FE052D605D7080EF66E060EF76EDA
:1009A000000EF86E0B0E146E12DF0BC015F01B0E4E
:1009B000166E3ADF150EF66E060EF76E000EF86E26
:1009C000030E146E04DF1A0EF66E060EF76E000E9E
:1009D000F86E66DF040E136E135212E0010E135C04
:1009E000036A0C0FE96E000E0320EA6EEFCF15F0DC
:1009F0001B0E166E19DF050E146E69DF1306ECD799
:100A00002A0EF66E060EF76E000EF86E49DF0BC06A
:0C0A100012F0FA0E146E5BDFB9D7030081
:020000040030CA
:0C000000AAFFFDFF9FFFFFDFFFFFFFFFD7
:00000001FF
;PIC18F67K40
;CRC=A13C  CREATED="22-ene.-26 02:40"
